:020000040800F2
:100000000000022029060008790600087906000889
:10001000790600087906000879060008000000004B
:100020000000000000000000000000007906000849
:10003000790600080000000079060008DF070008C4
:100040007906000879060008790600087906000894
:100050007906000879060008790600087906000884
:100060007906000879060008790600087906000874
:100070007906000879060008790600087906000864
:100080007906000879060008790600087906000854
:100090007906000879060008790600087906000844
:1000A0003D200008551F000851200008791F000856
:1000B0008D1F0008A11F0008B51F00087906000861
:1000C0007906000879060008790600087906000814
:1000D000790600088D1C0008A51C0008C11C00083A
:1000E00079060008790600087906000865200008EE
:1000F000052000087920000829200008790600085A
:100100007906000879060008C91F0008790600086A
:10011000DD1C0008F51C0008DD1F0008F11F0008A9
:1001200079060008790600087906000879060008B3
:1001300079060008000000000000000079060008B1
:100140007906000879060008790600087906000893
:100150007906000879060008790600080D1D0008D8
:100160007906000879060008790600087906000873
:100170007906000879060008000000000000000071
:08018000790600087906000869
:10019000024B0121186800F07BB900BF000000206D
:1001A00010B5094C0121206800F0E2F94FF47A7093
:1001B00000F01AFA2068002100F0DAF9BDE81040DA
:1001C0004FF47A7000F010BA000000200000000028
:1001D00001F0FF01102A2BDB10F0070F08D010F8F8
:1001E000013B013A8B422DD010F0070F42B3F6D1FC
:1001F000F0B441EA012141EA014122F007047FF015
:1002000000070023F0E80256083C85EA010586EA6B
:10021000010685FA47F5A3FA87F586FA47F6A5FAA7
:1002200087F68EB9EED1F0BC01F0FF0102F00702B3
:1002300032B110F8013B013A83EA010313B1F8D15E
:100240000020704701387047002D06BF354603383F
:10025000073815F0010F07D1013015F4807F02BF78
:10026000013015F4C03F0130F0BC0138704700BFC9
:1002700053B94AB9002908BF00281CBF4FF0FF310D
:100280004FF0FF3000F0E2B8ADF1080C6DE904CE9C
:1002900003F060FFDDF804E0DDE9022304B07047FD
:1002A00000F1340191E838009C46A6464CF8045D04
:1002B00090E8FF0FE54600BD90EC210B704700BFB2
:1002C00080EC210B704700BF90EC200B704700BF03
:1002D00080EC200B704700BFD0EC200B704700BFB4
:1002E000C0EC200B704700BFF0EC0201F0EC0211F3
:1002F000F0EC0221F0EC0231F0EC0241F0EC0251A2
:10030000F0EC0261F0EC0271F0EC0281F0EC029191
:10031000F0EC02A1F0EC02B1F0EC02C1F0EC02D181
:10032000F0EC02E1F0EC02F1704700BFE0EC0201FA
:10033000E0EC0211E0EC0221E0EC0231E0EC0241E1
:10034000E0EC0251E0EC0261E0EC0271E0EC0281D1
:10035000E0EC0291E0EC02A1E0EC02B1E0EC02C1C1
:10036000E0EC02D1E0EC02E1E0EC02F1704700BF0A
:10037000B0FC0181B0FC0191B0FC01A1B0FC01B165
:10038000704700BFA0FC0181A0FC0191A0FC01A16D
:10039000A0FC01B1704700BFEC4600B52DE900504C
:1003A0002DE9FF1F4FF000032DE90C0001A904F017
:1003B0008BF9DDF840E012B0704700BFEC4600B5A5
:1003C0002DE900502DE9FF1F4FF000032DE90C002F
:1003D00001A904F0B5F9DDF840E012B0704700BFA4
:1003E000EC4600B52DE900502DE9FF1F4FF000034A
:1003F0002DE90C0001A904F0C5F9DDF840E012B0C8
:10040000704700BFEC4600B52DE900502DE9FF1FF5
:100410004FF000032DE90C0001AB04F089F9DDF881
:1004200040E012B0704700BFEC4600B52DE9005027
:100430002DE9FF1F4FF000032DE90C0001AA04F085
:10044000F5F9DDF840E012B0704700BF704700BF1B
:1004500010B5054C237833B9044B13B10448AFF3FE
:1004600000800123237010BD1C010020000000004B
:10047000E050000808B5034B1BB103490348AFF334
:10048000008008BD0000000020010020E0500008AE
:10049000C3B2262B2DE9F0410D462AD82E4A52F838
:1004A000234000F4E0600443621C53D02B4EC4F39D
:1004B000031704F00F0856F8273023FA08F3DB0778
:1004C00010D52749204600F08EFA18B3204600F0D8
:1004D000ABFB012303FA08F256F8273023EA0203A4
:1004E00046F82730052D2FD8DFE805F01E2A2426F0
:1004F000282C00F0C002C02A2CD1C62B2AD8194BB8
:1005000000F03F0200F4E06053F82220124B53F851
:100510002240C8E71449204600F065FA0028D8D0E8
:10052000204600F09BFBD4E700212046BDE8F041C7
:1005300000F068BA1021F8E72021F6E70321F4E77C
:100540000121F2E70921F0E7BDE8F0410748492120
:1005500000F038B9BDE8F0813056000838010020BD
:10056000545200081456000878520008F850000849
:10057000C3B2262B17D8174A52F8233000F4E06094
:100580001843C0F30313082B98BF134A00F00F0061
:1005900098BF52F82320114B88BF002253F8203017
:1005A000A9B19361704700F0C002C02A0CD1C62BDC
:1005B0000AD80B4B00F03F0200F4E06053F8222011
:1005C000044B53F82230DBE74FF0FF30D9E71B0430
:1005D000E7E700BF3056000808000020F851000887
:1005E0001456000800F0F8B838B5044648B100F0D9
:1005F000F3F8054600F0C8FB00F0EEF8431BA342F9
:10060000F8D338BD08B5032000F038F8BDE808403D
:1006100000F0B8BB08B5AFF30080FFF7B9FDFFF7F6
:10062000BFFD00F0B3FBFAE7DFF834D00D480E4908
:100630000E4A002302E0D458C4500433C4188C423C
:10064000F9D30B4A0B4C002301E013600432A242A1
:10065000FBD300F0F3F802F02FFDFFF7DBFF70474C
:1006600000000220000000201C010020B4590008F6
:100670001C010020D4020020FEE700000749CA68E0
:1006800022F4E0620302120403F4E063120C134349
:1006900043F0BF6343F40033CB60704700ED00E0EC
:1006A000164B30B5DC68C4F30224C4F10705231DE2
:1006B000042D28BF0425062B4FF0FF338CBF033CCD
:1006C000002403FA05F521EA0501A34022EA03020A
:1006D000A140002841EA0203ACBF00F16040084A93
:1006E0004FEA0313B8BF00F00F00DBB2AABF00F55A
:1006F0006140135480F8003330BD00BF00ED00E0CE
:1007000014ED00E0002808DB0123420900F01F007F
:1007100003FA00F0014B43F82200704700E100E0CB
:1007200000280DDB4309012200F01F0002FA00F04F
:100730002033044A42F82300BFF34F8FBFF36F8F7B
:10074000704700BF00E100E00138B0F1807F0BD2BC
:100750004FF0E023054A5861F02182F82310002071
:10076000072298611A6170470120704700ED00E090
:10077000002809DB4309012200F01F0002FA00F003
:100780006033024A42F82300704700BF00E100E0F6
:10079000704708B5FFF7FCFF08BD00000FB407B5B0
:1007A000064B07491B6805AAD868019202F008FFAA
:1007B00003B05DF804EB04B0704700BFB400002044
:1007C0005F5100080A4608B501460248FFF7E6FFF8
:1007D000FEE700BF5F51000800F03CBF704708B55E
:1007E00000F02CFFFFF7D5FFFFF7F8FF08BD7047BB
:1007F00084B0114B00220192196C41F080511964B0
:10080000196C01F08051019101990292596C41F4E7
:1008100080415964596C01F480410291029903921C
:100820001A6B42F480521A631B6B03F480530393D8
:10083000039B04B0704700BF003802401049D1F854
:10084000883043F47003C1F888300E4B1A6842F0C8
:1008500001021A6000229A601A6822F0847222F45F
:1008600080321A60084A5A601A6822F480221A609C
:100870004FF43F02DA604FF000638B60704700BFB7
:1008800000ED00E000380240103000248AB0002360
:1008900008287CD8DFE800F00513202D3A47546182
:1008A0006E0001933B4B3C481A6B42F001021A6305
:1008B0001B6B03F001030193019B0AB07047029385
:1008C000344B36481A6B42F002021A631B6B03F07A
:1008D00002030293029BF0E703932E4B30481A6BFE
:1008E00042F004021A631B6B03F004030393039B9F
:1008F000E3E70493274B2B481A6B42F008021A6374
:100900001B6B03F008030493049BD6E70593214B6C
:1009100025481A6B42F010021A631B6B03F0100398
:100920000593059BC9E706931A4B20481A6B42F0C2
:1009300020021A631B6B03F020030693069BBCE79F
:100940000793144B1A481A6B42F040021A631B6B50
:1009500003F040030793079BAFE708930D4B15483F
:100960001A6B42F080021A631B6B03F0800308933A
:10097000089BA2E70993074B0F481A6B42F4807259
:100980001A631B6B03F480730993099B95E700209E
:1009900093E700BF0038024000000240000402401C
:1009A00000080240000C0240001002400014024007
:1009B00000180240001C02400020024030B591FAAD
:1009C000A1F391FAA1F1B3FA83F3C4685B000325A4
:1009D000B1FA81F105FA03F3490024EA03038A40DE
:1009E0001343C36030BD431C04D00C3151F80C3CA0
:1009F0005A1C01D100207047834201F10C01F5D14E
:100A000001207047484B00F00F02B0F1FF3F2DE985
:100A1000F04153F8225080460E4601F00707C0F31C
:100A2000031403D141489E21FFF7CCFE2046FFF777
:100A30002DFF95FAA5F2B2FA82F2836803215200E3
:100A400001FA02F223EA020195FAA5F3B3FA83F35D
:100A50005A00032393400B4304468360032F35D889
:100A6000DFE807F01D1D021D18F0080FC6F306226F
:100A700017D02B0A93FAA3F1B1FA81F1406A93FAE5
:100A8000A3F389004FF00F0CB3FA83F30CFA01F1D2
:100A90009B0020EA010102FA03F30B4363623B4629
:100AA00019E095FAA5F1B1FA81F1036A89000F20E6
:100AB00000FA01F123EA010195FAA5F3B3FA83F3F1
:100AC0009B0002FA03F30B432362E8E71748FB217C
:100AD000FFF778FE002395FAA5F2B2FA82F22168B8
:100AE0005200032000FA02F221EA020195FAA5F26F
:100AF000B2FA82F252009340013F0B43012F236070
:100B000005D8636832074CBF2B43AB436360C6F321
:100B10000112012A02D0022A18BF002229462046CB
:100B2000BDE8F041FFF74ABFF851000887510008BF
:100B3000431C06D17047834202D18968FFF762BF28
:100B40000C310B685A1CF6D1024840F22911FFF70C
:100B500039BE00BF875100080B685A1C01D1002024
:100B60007047834201D1486870470C31F4E7431C59
:100B700001D0FFF7F1BF002070474B6813B94FF069
:100B8000FF307047834201D1086870470C31F4E7A9
:100B900008B1FFF7F2BF4FF0FF3070470346086817
:100BA000421C00D17047984201D1886870470C31CF
:100BB000F5E7431C01D0FFF7F1BF7047884204D02E
:100BC00018B100290CBF01460021084670470000FB
:100BD000084908B5FFF7EDFFC0F3C431012904D07F
:100BE000022904D00448FFF7EDFD002008BD1020C5
:100BF000FCE700BF54520008385200080268094B55
:100C00009A420DD103F5E2331A6A42F000521A6299
:100C10001A6A22F000521A621A6C22F000521A6408
:100C2000704700BF0074004010B50B4986B0044601
:100C3000FFF79DFF019060B12046FFF7C9FF30F03C
:100C40001003014605D101A800F018FD01A800F02D
:100C500007FD06B010BD00BF5452000873B515491A
:100C6000154D0646FFF783FF01F092F855F8203046
:100C7000044673B90F493046FFF779FF0190B02061
:100C800001F06EF80199064601F054F955F8243048
:100C90001E6055F824301C684CB1204601F0D8F88D
:100CA000B021204602B0BDE8704001F05BB802B050
:100CB00070BD00BF785200088C02002010B594B0BF
:100CC000102200210AA802F039FA1422002103A8F8
:100CD00002F034FA284B002100911A6C42F0805245
:100CE0001A641B6C03F080530093009B234B01910B
:100CF0001A6842F480421A601B6803F4804301932F
:100D0000019B01214FF480334FF48002CDE9081399
:100D10000223CDE90E320620A822CDE9100212935B
:100D200008A80723139300F0AFF918B114486A21FB
:100D3000FFF748FD02230F22CDE9032300244FF4DF
:100D4000A053CDE9054305214FF4805303A8079331
:100D500000F078FB18B10A487721FFF733FD064B06
:100D600002941A6B42F480121A631B6B03F4801313
:100D70000293029B14B010BD003802400070004086
:100D80009055000800F0DEBC7047000008B5044B29
:100D90002BB1044800F008F808B1AFF3008008BD9B
:100DA000000000005C010020B0F80431B0F8000140
:100DB000181A00F03F007047B0F80431B0F8002175
:100DC0009BB293421ABFD0F8F830985C4FF0FF30D6
:100DD000704790F80231B0F80601C0B2834227BFD5
:100DE000C3F13F03C018C01A00F1FF30704707B5C8
:100DF00003688DF807105B6801220DF10701984721
:100E000003B05DF804FB000038B5426FB0F87230F3
:100E100012FA83F303F03F03A0F87230B0F87220A7
:100E2000B0F86E3092B293421BD0B0F87220B0F896
:100E300072400D4995B203F14002521B534203F038
:100E40003F03A4B202F03F0258BF5A42C4F140032C
:100E50009A4228BF1A46426700F098FE4FF0FF30D2
:100E600038BD0020FCE700BF090E000803682DE92B
:100E7000F0479B680446884616469847012323742A
:100E8000D4F8E830B4F8029101338246C9F1400940
:100E900004F1940708D194F80C312BB1002384F8A5
:100EA0000C31384600F092FE236820469B68984734
:100EB0000028F9D035464D4501D8554515D9D145BD
:100EC000236828BFD1464A4641465B68204698477A
:100ED000236820469B689847B4F80221A5EB0905D2
:100EE000C8448246C2F14009E5E7B4F80221D4F8CB
:100EF000FC005319402B104419D82A46414602F0F1
:100F00000FF9A946B4F802311D4405F03F05A4F8D5
:100F10000251384600F028FE30B90C49C4F8089157
:100F20004A46384600F032FE3046BDE8F087C2F14E
:100F300040094A46414602F0F3F8D4F8FC00A5EB1C
:100F4000090208EB090102F0EBF8DBE7090E0008E3
:100F5000037C33B1B0F80221B0F806319BB29A425B
:100F6000FAD17047C0F8EC30009BC0F8F0309142E5
:100F700008BF4FF0FF3100F11103C0E93921C0F87B
:100F8000F83000F151020023A0F80431C0E93F23FA
:100F9000A0F806317047000073B54FF47A73164617
:100FA0000022C0E90123174B03604FF0FF33C0F864
:100FB000E830154B984204460D4616D1134B1A687B
:100FC000C0F8E8205B68C0F8E430012E4FF0FF3332
:100FD00008BFC4F8E83000932046D4E939214FF027
:100FE000FF33FFF7BFFF02B070BD09492846FFF786
:100FF000CFFD0849C4F8E8002846FFF7C9FDC4F84A
:10100000E400E2E7D45600085C01002030560008F6
:101010002455000860550008D0F8E830013310B5B9
:1010200004460ED10368DB68984794F80C3143B945
:10103000012384F80C3104F19400BDE8104000F065
:10104000D3BD10BD10B50446FFF7E6FFB4F8042188
:10105000B4F8003192B29A421FBFD4F8F820D05CA5
:10106000013303F03F0314BFA4F800314FF0FF3009
:1010700010BD0000024903480022FFF78DBF00BFEA
:10108000004800405C0100202DE9F341044640B3D4
:101090000368DD0710D4236898075ED423681A0715
:1010A00000F1A08023685B0700F1C080A0690028E0
:1010B00040F0288100202BE08F4B9A6802F00C0250
:1010C000042A07D09A6802F00C02082A0BD15A6849
:1010D000510208D5884B1B689A03DCD56368002B46
:1010E000D9D1012014E06268B2F5803F13D11A68AB
:1010F00042F480321A6000F0ADFA7F4E0546336844
:101100009B03C8D400F0A6FA401B6428F7D903203B
:1011100002B0BDE8F081784DB2F5A02F2B6807D161
:1011200043F480232B602B6843F480332B60E2E789
:1011300023F480332B602B6823F480232B60002A58
:10114000D9D100F087FA06462B689F03A3D500F09B
:1011500081FA801B6428F7D9D9E7674B9A6812F0A7
:101160000C0F07D09A6802F00C02082A11D15B68B4
:101170005E020ED4604A13689D0702D5E368012B16
:10118000AFD11368216923F0F80343EAC103136068
:1011900084E7E268594BB2B101221A6000F05AFAB2
:1011A000554D06462B68980707D52B68226923F012
:1011B000F80343EAC2032B6070E700F04BFA801B90
:1011C0000228EFD9A3E71A6000F044FA4A4E054618
:1011D000336899077FF562AF00F03CFA401B0228A4
:1011E000F6D994E76269454B82B10122C3F8802E9B
:1011F00000F030FA404E0546736F9F073FF552AF3F
:1012000000F028FA401B0228F6D980E7C3F8802EA8
:1012100000F020FA384E0546736F98077FF542AF0D
:1012200000F018FA401B0228F6D970E7324B1A6C0E
:1012300012F0805228D101921A6C42F080521A6446
:101240001B6C03F080530193019B01272C4D2B68ED
:10125000D9051BD5A368284D012B27D12B6F43F04F
:1012600001032B6700F0F6F9234E054641F288385A
:10127000336F9B0739D5002F3FF418AF1E4A136C0C
:1012800023F08053136411E70027DFE72B6843F452
:1012900080732B6000F0DEF906462B68DA05D9D49E
:1012A00000F0D8F9801B0228F7D930E7052B04D1CC
:1012B0002B6F43F004032B67D0E72A6F22F0010263
:1012C0002A672A6F22F004022A67002BCAD100F095
:1012D000C1F941F2883806462B6F9807CBD500F04C
:1012E000B9F9801B4045F7D911E700F0B3F9401B6D
:1012F0004045BDD90BE700BF00380240000047421F
:1013000000700040364DAB6803F00C03082B3DD055
:10131000344B002202281A662BD100F09BF90646B6
:101320002B6899011FD4D4E907321343626A43EA58
:101330008213E26A43EA0263A26A5208013A43EA6C
:1013400002436B60274B264D01221A6600F082F99A
:1013500004462B689A013FF5ADAE00F07BF9001B07
:101360000228F6D9D3E600F075F9801B0228D7D9F8
:10137000CDE600F06FF904462B689B017FF59AAE2D
:1013800000F068F9001B0228F6D9C0E601283FF4F6
:10139000BFAE6B68E26903F4800191427FF4A1AEB5
:1013A000216A03F03F028A427FF49BAE616A47F6EE
:1013B000C0721A40B2EB811F7FF493AEA26A52084A
:1013C00003F44031013AB1EB024F7FF48AAEE26A96
:1013D00003F07063B3EB026F3FF46CAE81E600BFC5
:1013E0000038024000004742134908B58B6803F0FB
:1013F0000C03042B1CD0082B1CD14A684B6849688D
:1014000013F4800314BF0D480D48C1F3881118BFB1
:10141000002302F03F02A1FB0001FEF729FF064B6B
:101420005B68C3F3014301335B00B0FBF3F008BD1D
:101430000248FCE70248FAE700380240001BB70008
:101440000024F4002DE9F0410D46044610B90120B6
:10145000BDE8F081444B1A6802F007028A4228D3A3
:10146000226897072DD4D00741D43F4B1A6802F069
:101470000702AA4266D8226851076CD4130707D521
:101480003A4A2169936823F4604343EAC1039360B5
:10149000FFF7AAFF354B364A9B68C3F30313D35CAF
:1014A000D840344B1860344B186800F089F800209D
:1014B000CEE7CAB21A701B6803F007038B42C6D18D
:1014C000CEE72A4B12F0040F1EBF996841F4E05199
:1014D0009960160742BF996841F4604199602349B9
:1014E000A0688B6823F0F00303438B60BBE762685E
:1014F0001E4B012A1CD11B6813F4003FA7D01B4EC2
:10150000B36823F003031343B36000F0A3F841F280
:1015100088380746B368626803F00C03B3EB820FA8
:10152000A3D000F097F8C01B4045F3D903208FE704
:10153000911E01291B6802D813F0007FDEE713F02B
:10154000020FDBE7EAB21A701B6803F00703AB4235
:101550007FF47DAF8FE70549E0688B6823F4E053A3
:1015600003438B608AE700BF003C02400038024022
:101570006F5100080400002030000020044B054A91
:101580009B68C3F38223D35C034A1068D84070473A
:10159000003802407F51000804000020044B054A37
:1015A0009B68C3F34233D35C034A1068D84070474A
:1015B000003802407F5100080400002070470000FE
:1015C00038B50E4A0E4B054618784FF47A73B3FBC4
:1015D000F0F31068B0FBF3F0FFF7B6F8044658B923
:1015E0000F2D09D8024629464FF0FF30FFF758F873
:1015F000044B20461D6038BD0120FCE7040000209C
:101600002C0000203000002008B50B4B1A6842F473
:1016100000721A601A6842F480621A601A6842F412
:1016200080721A600320FFF729F80020FFF7C8FF37
:10163000FFF7C4FF002008BD003C0240034A044BF2
:1016400011681B780B441360704700BF70020020C4
:101650002C000020014B1868704700BF700200206A
:1016600010B5044640B102230371FFF7C7FA00200A
:1016700020616071207110BD0120FCE710B5046885
:101680000122236801F0100102FA01F123EA0101AD
:1016900021600271002010BD70B50446866DFFF711
:1016A000D9FF94F83530022B054606D080236365B8
:1016B000002384F83430012070BD23681A6822F0BA
:1016C00016021A605A6922F080025A61226C0AB925
:1016D000A26C1AB11A6822F008021A601A6822F085
:1016E00001021A6023681B6813F001030AD1E16D3F
:1016F0003F228A40B260012284F8352084F83430D9
:101700001846D9E7FFF7A6FF401B0528EAD9202392
:1017100063650320002384F8350084F83430CBE778
:1017200090F83530022B03D08023436501207047A9
:101730000268052380F83530136823F00103136035
:101740000020704708B5FFF753F800F0EBFAFFF7F9
:101750005BFFFFF74CF8FFF7B1FABDE8084001481E
:1017600000F023BD340000200FB407B5064B04AAD7
:101770001B6852F8041BD868019201F021FF03B0E6
:101780005DF804EB04B07047B40000202DE9F04F81
:1017900089B004468A46006D8F49DDF848B0984606
:1017A0009146FFF7E4F98D490190606DFFF7DFF98D
:1017B0008B490646A06DFFF7DAF98A490546E06DC8
:1017C000FFF7D5F9019B07462BB9874809B0BDE85B
:1017D000F04FFFF7C9BF626D013202D00EB98348E6
:1017E000F4E7A26D013202D00DB98148EEE7E26D57
:1017F000013202D00FB97F48E8E718463146FFF7BB
:10180000DDF929462060FFF7D9F939462060FFF756
:10181000D5F9206008B97848D8E7784B98424ED17E
:1018200003F594335A6A42F010025A625A6A22F05F
:1018300010025A62002202925A6C42F010025A645C
:101840005B6C03F010030293029B2523A4F8603025
:101850006149206DFFF76CF91EB16049606DFFF7BB
:1018600067F92DB15E49A06DFFF762F94FF48075FD
:101870002FB15C49E06D45F40075FFF759F994F814
:1018800061205F4B94F96000C4F81480271D43F871
:10189000227023680022C4E9013A0C23C4E9039BA7
:1018A000C4E9063522620121FEF7FAFE3846002E11
:1018B00040F08D8009B0BDE8F04F00F078BD514B8D
:1018C000984217D103F5FA331A6A42F400321A62C9
:1018D0001A6A22F400321A62002203921A6C42F44D
:1018E00000321A641B6C03F400330393039B4FF420
:1018F0009373ABE7444B984217D103F5F8331A6A58
:1019000042F480221A621A6A22F480221A620022A9
:1019100004921A6C42F480221A641B6C03F4802334
:101920000493049B40F2272390E7384B984217D149
:1019300003F5F6331A6A42F400221A621A6A22F494
:1019400000221A62002205921A6C42F400221A64E4
:101950001B6C03F400230593059B4FF44D7375E74F
:101960002B4B984217D103F5F4331A6A42F48012D4
:101970001A621A6A22F480121A62002206921A6C03
:1019800042F480121A641B6C03F480130693069BC6
:1019900040F235435AE71F4B98427FF459AF03F5A5
:1019A00092335A6A42F020025A625A6A22F02002A6
:1019B0005A62002207925A6C42F020025A645B6C11
:1019C00003F020030793079B40F247533EE709B01B
:1019D000BDE8F04F00F0BDBC60550008245500087C
:1019E0000C550008F4540008F85600082457000865
:1019F000505700087D570008AA5700080010014002
:101A0000740200200044004000480040004C0040A8
:101A100000500040001401400D4B37B55D680D4982
:101A20002846FFF7A4F888B10A490B4C2846FFF76F
:101A30009EF80A49FFF7ACF80023C4E9145000935C
:101A40001A464FF416512046FFF7A0FE03B030BDF2
:101A500030560008605500083C000020245500085E
:101A60002DE9F0470D460646FFF7F4FD314B3249AC
:101A7000D3F8048007464046FFF779F810B90020F4
:101A8000BDE8F0872D4C94F86130052B28D9002350
:101A9000DFF8AC90DFF8A0A084F8613094F86130F2
:101AA000052B13D859F823302BB994F86130013342
:101AB00084F86130F2E751464046FFF758F894F851
:101AC000613059F823301B688342EED194F86130BD
:101AD000052B1ED9FFF7A0FF94F86130052BCED857
:101AE00094F96000DFF85880FEF71AFE1FFA85F9B6
:101AF00094F861004FF47A7358F820004A46314652
:101B000000F087FC68B994F96000FEF7FBFD2846F9
:101B1000B6E70B4A52F8233093F95C3084F8603012
:101B2000DEE7FFF797FDC01BB0F57A7FE0D3002515
:101B3000E9E700BF30560008605500083C0000206F
:101B40007402002008B5074B90F8612053F822007A
:101B500000F0B2FE00F02200A0F1220358425841EA
:101B600008BD00BF7402002008B5074B90F8612043
:101B700053F8220000F0A0FE00F02100A0F12103A4
:101B80005842584108BD00BF7402002038B51546C0
:101B90000446B8B1C16490F96000FEF7C1FDA36EC0
:101BA000B4F8721094F8610013FA81F1064BAAB2EE
:101BB00053F8200000F082FC94F96000BDE8384042
:101BC000FEF7A0BD38BD00BF7402002048B1436DD0
:101BD000013306D190F86120024B53F8220000F047
:101BE0003BBE70477402002048B1436D013306D1FB
:101BF00090F86120024B53F8220000F045BE704778
:101C000074020020436C04381847836C043818476A
:101C10001FB503680446186810F0010013D00022B5
:101C200000921A6800925B680093009B201FFFF7E8
:101C300089FF40BB012204F15E01204604B0BDE8EB
:101C4000104000F05ABE196811F0020106D0019050
:101C50001A6801925B680193019BE7E71A6812F02A
:101C6000040206D002911A6802925B680293029BFA
:101C7000DCE719680907D9D503921A6803925B68F3
:101C80000393039BD2E704B010BD000008B52520E4
:101C9000FEF76EFD024B1868BDE8084000F08CBCF2
:101CA0007402002008B52620FEF762FD034B586839
:101CB00018B1BDE8084000F07FBC08BD74020020E8
:101CC00008B52720FEF754FD034B986818B1BDE80E
:101CD000084000F071BC08BD7402002008B5342033
:101CE000FEF746FD024BD868BDE8084000F064BC32
:101CF0007402002008B53520FEF73AFD024B186942
:101D0000BDE8084000F058BC7402002008B5472028
:101D1000FEF72EFD024B5869BDE8084000F04CBCB0
:101D2000740200200C4BD3F8FC20D2015EBFD3F824
:101D3000FC2042F08072C3F8FC20084B00225A605D
:101D40001A6842F001021A6000BF00BF00BF586865
:101D5000B0FA80F04009704700ED00E0001000E0AC
:101D600001F0CEB901F0D4B9836810B504462BB1A7
:101D70000322014698470023C4E9023310BD83685B
:101D800010B5044613B1032201469847204610BD02
:101D9000264A904203462ED0B0F1804F2DD0A2F5B6
:101DA0007C4290422BD002F58062904229D002F50D
:101DB0008062904227D04FF6FF701D4A934224D094
:101DC0001C4A934223D01C4A934222D002F57052FF
:101DD000934220D0194A93421FD0194A93421ED0F1
:101DE000184A93421DD0184A93421CD0174A934276
:101DF00008BF0D2070470020DFE70120DDE702204B
:101E0000DEE70320DFE70420E4E70520E5E706201E
:101E1000E6E70720E7E70820E8E7092070470A20FF
:101E200070470B2070470C20704700BF0000014036
:101E30000010004000140040000401400044014034
:101E40000048014000180040001C004000200040F5
:101E5000014670B5044651F8100FFFF799FF05468B
:101E6000084600F095FF094A002342F8253004F1A6
:101E70006006E36004F1B005B54204D0103D284689
:101E8000FFF77DFFF8E7204670BD00BF8C02002001
:101E9000F8B504460846FFF77BFF4FF6FF739842FC
:101EA0000D46064603D121484D21FEF78BFC2369E0
:101EB0001BB11E485221FEF785FC1D4A04F10C039C
:101EC00042F8263000230E2204F110062561C4E9F1
:101ED0000C33C4E90E33C4E91033C4E9162384F883
:101EE0002C30A36484F84C3084F84D30E4603046E4
:101EF00000F056FE04F1600504F1B00728461035E5
:101F0000FFF732FFAF42F9D100234FF6FF72C4E969
:101F10000033C4E90632C4E90833A3606361802357
:101F2000A3623046BDE8F84000F00ABEE55700085D
:101F30008C02002010B50023044683668367C0F836
:101F40008830C0F89830C0F8A8300361FFF7A0FFD0
:101F5000204610BD10B5074C206810B1043000F0C9
:101F6000E6FC606A20B1BDE81040043000F0DFBC40
:101F700010BD00BF8C020020034B186810B1043064
:101F800000F0D5BC704700BF8C020020034B58689E
:101F900010B1043000F0CBBC704700BF8C020020B1
:101FA000034B986810B1043000F0C1BC704700BF0B
:101FB0008C020020034BD86810B1043000F0B7BC8D
:101FC000704700BF8C020020034B186910B1043029
:101FD00000F0ADBC704700BF8C020020034B586975
:101FE00010B1043000F0A3BC704700BF8C02002089
:101FF000034B986910B1043000F099BC704700BFE2
:102000008C02002010B5074CE06910B1043000F0DC
:102010008EFC206B20B1BDE81040043000F087BC7E
:1020200010BD00BF8C020020034BD86910B10430F2
:1020300000F07DBC704700BF8C020020034B186A83
:1020400010B1043000F073BC704700BF8C02002058
:10205000034B986A10B1043000F069BC704700BFB0
:102060008C020020034BD86A10B1043000F05FBC32
:10207000704700BF8C020020034B586B10B1043036
:1020800000F055BC704700BF8C020020826810B57C
:102090000AB903F021F8BDE81040C36818470000F2
:1020A00010B5044620B9074840F26141FEF78AFBAB
:1020B000204600F073FD0068836E13B16030FFF7B7
:1020C000E5FF10BDE5570008FFF7EABF38B5054644
:1020D00020B9114840F27441FEF774FB2B7F013B9D
:1020E000072B11D8DFE803F015041011101010139E
:1020F0000224284600F052FD0068063400EB04106C
:1021000083680BB1FFF7C2FF38BD0324F1E7042455
:10211000EFE70124EDE700BFE5570008FFF7D6BF62
:10212000FFF7D4BF10B50446FEF75CFAE060236801
:1021300020465B699847002808DAFEF753FAE368FF
:10214000C01AA3689842F2D34FF0FF3010BD2DE9BA
:10215000F04107460C468E180D46B542A5EB040823
:1021600007D03846FFF7DEFF031E02DB05F8013B10
:10217000F3E74046BDE8F0812DE9F0410746884687
:1021800016461D4673B100243846FFF7CBFF031EE9
:1021900005DB434503D033550134A542F4D1204635
:1021A000BDE8F0811C46FAE7704710B5044650B10F
:1021B000437903F0FF0213B90271FFF7F5FF012322
:1021C0006371002010BD0120FCE7026802F10C03DE
:1021D00053E8003F23F490730C3242E80031026868
:1021E0000029F2D102F1140353E8003F23F0010368
:1021F00002F1140C4CE800310029F3D1036B012BE0
:102200000BD102F10C0353E8003F23F0100302F15D
:102210000C0C4CE800310029F3D1202380F83E302B
:1022200000230363704700000268C168136923F448
:1022300040530B4370B51361054683680069D1684C
:10224000034368690343E86921F4164121F00C0156
:1022500003430B43D3605369A96923F440730B43D1
:1022600053611F4B9A4203D003F580639A4223D1F6
:10227000FFF794F9EB691921B3F5004FD5E9004652
:10228000A0FB01011BD1B2194FF000035B41FDF728
:10229000EFFF6421B0FBF1F501FB1503DB003233E6
:1022A000B3FBF1F303F007025B0002EB051203F44A
:1022B000F8731344A36070BDFFF760F9DAE7B2006A
:1022C000B30FFDF7D5FF6422B0FBF2F102FB11035F
:1022D0001B013233B3FBF2F303EB0113EAE700BF58
:1022E00000100140F8B504460E4617461D46226808
:1022F000136836EA030301D1002028E06B1CF7D0F5
:1023000025B1FFF7A7F9C01B8542F0D2226802F180
:102310000C0353E8003F23F4D0730C3242E8003042
:1023200021680028F2D101F1140353E8003F23F0A3
:10233000010301F1140040E80032002AF3D1202308
:1023400084F83D3084F83C2084F83E300320F8BD0A
:10235000704710B5044640B390F83D3003F0FF02DB
:102360001BB980F83C20FFF7F3FF2268242384F890
:102370003D30D36823F40053D3602046FFF754FF69
:1023800023681A6922F490421A615A6922F02A02DB
:102390005A61DA6842F40052DA6000202023206497
:1023A00084F83D3084F83E3010BD0120FCE710B5C4
:1023B000044660B390F83D3003F0FF021BB980F88B
:1023C0003C20FFF7C5FF2268242384F83D30D36802
:1023D00023F40053D3602046FFF726FF23681A69D1
:1023E00022F490421A615A6922F022025A615A6913
:1023F00042F008025A61DA6842F40052DA600020C2
:102400002023206484F83D3084F83E3010BD012044
:10241000FCE7F7B5174690F83D200093202A0446C4
:102420000E4649D1002945D0002F43D090F83C20DA
:10243000012A41D0012280F83C2000252122056498
:1024400080F83D20FFF706F9A168009BA784B1F54D
:10245000805F0246E78403D1216909B935460E46FB
:10246000002184F83C10E18C89B241B9402120461A
:10247000FFF738FF60B9202384F83D3009E0802160
:102480002046CDE90023FFF72DFFDDE9002310B141
:10249000032003B0F0BD20684EB935F8021BC1F32C
:1024A00008014160E18C013989B2E184DBE716F86B
:1024B000011BF6E70120ECE70220EAE790F83D3047
:1024C000202B18D1A9B1A2B190F83C30012B12D029
:1024D000C28401628284016800232122036480F89F
:1024E0003C3080F83D20CA6842F08002CA6018463D
:1024F0007047012070470220704708B5806B0023A9
:10250000C385C384FFF784FB08BD704707B58168A6
:10251000836A0268B1F5805F3ED1016900293ED12E
:102520005268C2F3080223F8022B8362C38D013B79
:102530009BB2C385002B2CD10268D16821F0200109
:10254000D160D16821F48071D160516921F001011D
:102550005161202280F83E20026B012A026828D1B6
:10256000036302F10C0353E8003F23F0100302F170
:102570000C0C4CE800310029F3D11368DB0605D5BB
:1025800001911368019353680193019B818DFFF7BB
:10259000BCFF03B05DF804FB39B9016929B9526881
:1025A000D2B21A70836A0133BFE7526802F07F0229
:1025B000F7E7FFF727FBECE7036837B51A68D96838
:1025C0005D6912F00F0F04460CD1950670D58D068B
:1025D0006ED590F83E30222B64D103B0BDE8304078
:1025E000FFF794BF05F0010001F4907505435FD03B
:1025F000D50705D5CB0542BF236C43F00103236407
:10260000550704D518B1236C43F0020323649307E4
:1026100004D518B1236C43F004032364150707D5D0
:1026200001F0200303431EBF236C43F0080323641F
:10263000236C002B36D0900608D58A0606D594F870
:102640003E30222B02D12046FFF760FF23685B69F2
:10265000256C03F0400305F008051D43204623D0F8
:10266000FFF7B3FD226853695B0618D502F1140326
:1026700053E8003F23F0400302F1140040E800312A
:102680000029F3D1A06B50B1724B0365FFF748F8F6
:1026900040B1A06B036D03B0BDE830401847204641
:1026A000FFF7B6FA03B030BDFFF7B2FA2564F9E7D9
:1026B000206B012840F09180D50640F18E80C8063D
:1026C00040F18B80002201921A6801925A680192AF
:1026D000019A5A6955064CD5A16B0A68526892B2A4
:1026E000002ADFD0A08D9042DCD9E285CA69B2F51C
:1026F000807F36D003F10C0252E8002F22F4807262
:1027000003F10C0040E800210029F3D103F1140289
:1027100052E8002F22F0010203F1140040E80021EA
:102720000029F3D103F1140252E8002F22F04002F5
:1027300003F1140040E800210029F3D1202284F89D
:102740003E20216303F10C0252E8002F22F0100218
:1027500003F10C0040E800210029F3D1A06BFEF743
:102760009BFFE38DA18DC91A89B22046FFF7CDFEEC
:1027700098E7E18D8AB2E18D89B2002992D0A18DCE
:10278000891A89B200298DD003F10C0252E8002F7A
:1027900022F4907203F10C0545E800200028F3D1E3
:1027A00003F1140252E8002F22F0010203F1140594
:1027B00045E800200028F3D1202284F83E20206341
:1027C00003F10C0252E8002F22F0100203F10C0575
:1027D00045E800200028F3D1C7E7100628D50D06EC
:1027E00026D594F83D20212A7FF45CAFA168226AA7
:1027F000B1F5805F17D12169A9B932F8021BC1F385
:10280000080159602262E28C013A92B2E284002A05
:102810007FF448AFDA6822F08002DA60DA6842F0CA
:102820004002DA603EE7511C216212785A60EAE702
:1028300050067FF537AF4A067FF534AFDA6822F0ED
:102840004002DA60202384F83D302046FFF7DDF9AE
:1028500028E700BFFB24000890F83C30012B11D082
:102860000268242380F83D30D36823F00C0343F042
:102870000803D360202380F83D30002380F83C30EB
:10288000184670470220704790F83C30012B11D059
:102890000268242380F83D30D36823F00C0343F012
:1028A0000403D360202380F83D30002380F83C30BF
:1028B000184670470220704790F83D2090F83E007F
:1028C00010437047C285002382852222036480F86A
:1028D0003E20026980F83C30816203681AB1DA68F0
:1028E00042F48072DA605A6942F001025A61DA6891
:1028F00042F02002DA600020704770B490F83E6029
:10290000202E10D161B15AB190F83C40012C0AD070
:10291000012480F83C400024046370BCFFF7D2BF60
:10292000012070BC70470220FBE7704770470368C6
:102930001A69910710B504460ED5DA6892070BD5CF
:102940006FF002021A61012202779B699B0777D020
:10295000FFF7E6FB0023237723681A69500710D599
:10296000DA6851070DD56FF004021A61022222774E
:102970009B6913F4407F204668D0FFF7D1FB00230A
:10298000237723681A6912070FD5DA6810070CD568
:102990006FF008021A6104222277DB69990720464A
:1029A0005AD0FFF7BDFB0023237723681A69D206AC
:1029B00010D5DA68D0060DD56FF010021A61082222
:1029C0002277DB6913F4407F20464BD0FFF7A8FB4A
:1029D0000023237723681A69D10708D5DA68D2075C
:1029E00005D56FF001021A612046FFF76DFB2368E1
:1029F0001A69100608D5DA68110605D56FF080024D
:102A00001A61204600F0C9F823681A69520608D5F1
:102A1000DA68500605D56FF040021A612046FFF7CC
:102A200085FF23681A69910622D5DA6892061FD5B8
:102A30006FF0200220461A61BDE8104000F0ACB8EB
:102A4000FFF76CFB2046FFF770FF83E7FFF766FB9D
:102A50002046FFF76AFF92E7FFF760FB2046FFF78B
:102A600064FFA0E7FFF75AFB2046FFF75EFFAFE7E2
:102A700010BD0000304A0368904212D0B0F1804F80
:102A80000FD0A2F57C4290420BD002F580629042BA
:102A900007D002F58062904203D002F5784290425E
:102AA00019D14A6823F070031343234A904229D076
:102AB000B0F1804F26D0A2F57C42904222D002F5A0
:102AC000806290421ED002F5806290421AD002F5D8
:102AD0007842904216D0194A904213D002F5806293
:102AE00090420FD002F5806290420BD0A2F598324E
:102AF000904207D002F58062904203D002F58062D6
:102B0000904203D1CA6823F4407313434A6923F007
:102B10008003134303608B68C3620B688362064BB8
:102B2000984203D003F58063984201D10B69036397
:102B300001234361704700BF000001400040014095
:102B400010B5044630B390F83D3003F0FF021BB9D6
:102B500080F83C2000F076FA0223206884F83D30AB
:102B6000211DFFF787FF012384F84630002084F8F9
:102B70003E3084F83F3084F8403084F8413084F8A7
:102B8000423084F8433084F8443084F8453084F887
:102B90003D3010BD0120FCE7704770470438704796
:102BA00003686D4A93428EB02AD1002200926B4A8C
:102BB000516C41F001015164526C02F0010200922B
:102BC000009A674A93425DD100220592634A116CD4
:102BD00041F010011164126C02F010020592059A86
:102BE000604A93425DD100230A935C4B5A6C42F4D5
:102BF00080225A645B6C03F480230A930A9B26E0CC
:102C0000B3F1804F25D0584A93422FD0574A934270
:102C100057D0574A9342D4D1002204924F4A116CA4
:102C200041F008011164126C02F008020492049A47
:102C3000504A9342D4D100230993484B5A6C42F432
:102C400000325A645B6C03F400330993099B0EB0A5
:102C5000704700220192414A116C41F00101116458
:102C6000126C02F001020192019AAAE7002202927C
:102C70003A4A116C41F002011164126C02F0020236
:102C80000292029A3C4A934227D100220692334A8A
:102C9000116C41F020011164126C02F020020692C6
:102CA000069A364A934246D100230B932B4B1A6C5B
:102CB00042F040021A641B6C03F040030B930B9B21
:102CC000C5E700220392254A116C41F0040111640A
:102CD000126C02F004020392039A294A93421ED016
:102CE000284A9342A4D1002208921C4A516C41F414
:102CF00080315164526C02F480320892089A224A60
:102D00009342A4D100230D93144B1A6C42F48072A9
:102D10001A641B6C03F480730D930D9B97E70022DC
:102D200007920E4A516C41F002015164526C02F05C
:102D300002020792079A154A9342E0D100230C93AE
:102D4000064B1A6C42F080021A641B6C03F080037D
:102D50000C930C9B7BE700BF000001400038024051
:102D600000100040004801400004004000080040FE
:102D7000000C0040004401400014004000180040D6
:102D8000000401400040014000200040001C0040C1
:102D900003683A4A934214D139494A6C22F001023D
:102DA0004A64384A934231D135490A6C22F0100204
:102DB0000A64354A934231D1314A536C23F480235B
:102DC00017E0B3F1804F16D0304A934219D0304A01
:102DD00093422CD02F4A9342E3D129490A6C22F026
:102DE00008020A642C4A9342E3D1254A536C23F427
:102DF00000335364704722490A6C22F001020A64CE
:102E0000CFE71F490A6C22F002020A64234A934268
:102E100012D11B490A6C22F020020A64204A934214
:102E20001ED1174A136C23F04003136470471449F2
:102E30000A6C22F004020A641A4A93420BD01A4A1E
:102E40009342CFD10E494A6C22F480324A64174A29
:102E500093420DD070470A494A6C22F002024A643C
:102E6000134A9342F3D1064A136C23F08003DCE744
:102E7000034A136C23F48073D7E700BF00000140BE
:102E800000380240001000400048014000040040AB
:102E900000080040000C00400044014000140040C5
:102EA00000180040000401400040014000200040A4
:102EB000001C004008B5431C014616D0294B98421F
:102EC0003ED01ED8A3F5406398423BD010D8A3F55E
:102ED0000063984238D003F58063984236D0B0F151
:102EE000804F35D02048FDF76DFC6FF00D0008BD18
:102EF0001E4B98422ED003F580639842F2D13720C2
:102F0000F5E71B4B98420CD00DD8A3F564439842CB
:102F100022D003F56043984220D0A3F56443984241
:102F2000E0D12C20E3E7134B984217D003F58063E0
:102F3000984215D0A3F500639842D3D11820D6E764
:102F40002B20D4E73220D2E71D20D0E71E20CEE789
:102F50001C20CCE73620CAE72D20C8E71920C6E799
:102F60001A20C4E70018004058580008001000401C
:102F7000000401400044014008B5431C014616D03E
:102F80002B4B98423ED022D8A3F5805398423BD099
:102F900010D8A3F50063984238D003F580639842B7
:102FA00036D0B0F1804F35D02248FDF70BFC6FF0E2
:102FB0000D0008BD204B98422ED003F58063984247
:102FC0002CD0A3F500639842EED13620F1E71B4BDD
:102FD000984225D00DD8A3F58043984222D003F51E
:102FE0008063984220D0A3F564439842DCD12D2021
:102FF000DFE7134B984219D003F580639842D3D191
:103000001A20D6E72C20D4E73220D2E71D20D0E7C3
:103010001E20CEE71C20CCE73720CAE72B20C8E7CC
:103020001820C6E71B20C4E72E20C2E71920C0E7FE
:10303000001C0040585800080014004000400140A7
:103040000044014038B5FFF7ABFD04460068FFF7C8
:1030500031FFD4E91212FDF723FB2068FFF72AFFA6
:10306000FDF750FB2068FFF787FF05462068FFF754
:1030700021FF85420DD02068FFF77EFFD4E91212B0
:10308000FDF70EFB2068FFF777FFBDE83840FDF73E
:1030900039BB38BD70B50D46144630B1461E012E01
:1030A00005D811462846FEF7DBFC204670BD0368B4
:1030B0005B689847F9E7000070B50D4D0D4C641B37
:1030C000A4100026A64209D10B4D0C4C02F008F8C2
:1030D000641BA4100026A64205D170BD55F8043B20
:1030E00098470136EEE755F8043B98470136F2E77A
:1030F000A4590008A4590008A4590008B0590008B0
:10310000024B0146186800F08DB800BFB4000020E3
:10311000024B0146186800F019B800BFB400002047
:103120000A44914200F1FF3300D1704710B511F805
:10313000014B03F8014F9142F9D110BD02440346FF
:10314000934200D1704703F8011BF9E737B5002916
:1031500044D051F8043C0190002BA1F10404B8BF05
:10316000E41800F039FD1E4A0198136833B9636012
:10317000146003B0BDE8304000F034BDA34208D96C
:10318000256861198B4201BF19685B684919216084
:10319000EDE71A465B680BB1A342FAD911685518DE
:1031A000A5420BD1246821445418A3421160E0D1F8
:1031B0001C685B68536021441160DAE702D90C2374
:1031C0000360D6E7256861198B4204BF19685B6804
:1031D000636004BF491921605460CAE703B030BD81
:1031E000C402002070B50E4E0C463168054611B978
:1031F00000F0F0F930602146284600F0EBF9431C5E
:103200000AD0C41C24F00304A04207D0211A284687
:1032100000F0E0F9013001D14FF0FF34204670BDDD
:10322000C80200202DE9F041CD1C25F0030508352A
:103230000C2D38BF0C25002D074601DBA94205D90E
:103240000C233B6000263046BDE8F0812E4E00F096
:10325000C3FC33681C4634BB29463846FFF7C2FF1F
:10326000431C04464DD134682646002E40D12368C5
:103270003146384604EB030800F0ACF980453AD1FA
:10328000216803356D1A25F0030508350C2D38BF6C
:103290000C2529463846FFF7A5FF01302BD02368BF
:1032A0002B4423600EE02268521B1ED40B2A16D931
:1032B0006119A342256018BF5960636808BF316077
:1032C00062514B60384604F10B0600F08BFC26F08F
:1032D0000706231DF21AB6D09B1BA350B3E7626802
:1032E000A3420CBF32605A60ECE723466468B2E741
:1032F00034467668B9E70C233B60384600F072FC30
:10330000A1E72560DEE700BFC40200209368013B0F
:10331000002B10B4936008DA9469A34201DB0A29F8
:1033200003D15DF8044B00F065B91368581C1060B8
:10333000197008465DF8044B7047F8B506460F460D
:103340001446D518AC4201D1002007E014F8011B47
:103350003A463046FFF7DAFF431CF3D1F8BD0000D0
:103360002DE9F04F0D469DB014469846064618B11B
:1033700083690BB900F02AFB894B9D421BD175680C
:103380006B6ED90705D4AB899A0502D4A86D00F0FD
:10339000BBFBAB891B0701D52B69EBB9294630462E
:1033A00000F08CF9C0B16B6EDC070ED54FF0FF302A
:1033B0001DB0BDE8F08F7B4B9D4201D1B568DFE7C2
:1033C000794B9D4208BFF568DAE7AB899805EDD4E3
:1033D000A86D00F09AFBE9E70023099320238DF8FC
:1033E0002930CDF80C803023DFF8C0818DF82A30E9
:1033F0004FF0010923469A4613F8012B0AB1252AFA
:10340000F9D1BAEB040B0BD05B4622462946304675
:10341000FFF793FF013000F0AA80099A5A440992FD
:103420009AF80030002B00F0A28000234FF0FF320A
:10343000CDE905230AF1010A049307938DF853306F
:103440001A935446052214F8011B5848FCF7C0FE95
:10345000049AD8B9D10644BF20238DF853301307FE
:1034600044BF2B238DF853309AF800302A2B15D007
:10347000079A544600204FF00A0C214611F8013BF0
:10348000303B092B4ED9B0B1079214E0A0EB0803F2
:1034900009FA03F313430493A246D2E7039B191DD1
:1034A0001B680391002BBBBF5B4242F002020793F3
:1034B0000793B8BF049223782E2B0CD163782A2B64
:1034C00035D1039B1A1D1B680392002BB8BF4FF028
:1034D000FF3302340593DFF8E4A02178032250463D
:1034E000FCF776FE40B14023A0EB0A0003FA00F09F
:1034F000049B03430134049314F8011B2C488DF8FA
:1035000028100622FCF764FE00283FD0294B1BBB85
:10351000039B073323F0070308330393099B3B44C2
:10352000099367E70CFB02320C460120A5E7002354
:103530000134059319464FF00A0C204610F8012B70
:10354000303A092A03D9002BC5D00591C3E70CFBFB
:10355000012104460123F0E703AB00932A46164BF2
:1035600004A93046AFF300800746781CD6D16B6EB5
:10357000D90705D4AB899A0502D4A86D00F0C5FA25
:10358000AB895B063FF512AF099811E703AB0093D7
:103590002A46094B04A9304600F098FBE4E700BF37
:1035A000A8580008C858000888580008745800082F
:1035B0007E580008000000003B3300087A580008DD
:1035C00013460A46014602480068FFF7C9BE00BF1D
:1035D000B400002038B5064D0023044608462B6091
:1035E00000F080FD431C02D12B6803B1236038BD7D
:1035F000D0020020F8B50E461446054618B183697E
:103600000BB900F0E3F9214B9C422BD16C68A36904
:10361000A360A3891A072FD523696BB32369206898
:10362000C01A6369F6B28342374604DC2146284655
:1036300000F038F930BBA368013BA36023685A1C33
:1036400022601E7063690130834204D0A389DB07C6
:1036500006D50A2E04D12146284600F023F988B960
:103660003846F8BD0A4B9C4201D1AC68CFE7094B04
:103670009C4208BFEC68CAE72146284600F01EF8C5
:103680000028CBD04FF0FF37EAE700BFA85800086A
:10369000C85800088858000838B5074D0446084641
:1036A000114600222A601A46FFF7F4FC431C02D19F
:1036B0002B6803B1236038BDD0020020324B70B5B7
:1036C0001D6806460C4625B1AB6913B9284600F0C3
:1036D0007DF92E4B9C420FD16C68A389B4F90C2064
:1036E00019072CD4DD0611D40923336042F04003BE
:1036F000A3814FF0FF303EE0254B9C4201D1AC68E6
:10370000EBE7244B9C4208BFEC68E6E7580712D56C
:10371000616B41B104F14403994202D03046FFF796
:1037200015FD00236363A38923F02403A3810023F1
:10373000636023692360A38943F00803A38123699D
:103740004BB9A38903F42073B3F5007F03D021465E
:10375000304600F001FAA089B4F90C2010F0010302
:103760000AD00023A36063695B42A361236943B964
:1037700010F08000BAD170BD810758BF6369A360A3
:10378000F4E70020F7E700BFB4000020A8580008C5
:10379000C8580008885800088A892DE9F041054674
:1037A00010070C4658D44B68002B05DC0B6C002B23
:1037B00002DC0020BDE8F081E66A002EF9D000238B
:1037C00012F480522F682B6032D0606DA3895A07A3
:1037D00005D56368C01A636B0BB1236CC01A002354
:1037E0000246E66A216A2846B047431CA38906D1EF
:1037F00029681D292CD82A4ACA40D60728D5002274
:103800006260D9042269226004D5421C01D12B6870
:1038100003B96065616B2F600029CAD004F14403CD
:10382000994202D02846FFF791FC00206063C1E76F
:10383000216A01232846B047411CC7D12B68002BC1
:10384000C4D01D2B01D0162B01D12F60B1E7A38965
:1038500043F04003A381ADE70F69002FA9D0930780
:103860000E6808BF4B690F6018BF0023A6EB07085E
:103870008B60B8F1000F9CDD216AA66A43463A4688
:103880002846B047002806DCA38943F04003A38103
:103890004FF0FF308EE70744A8EB0008E9E700BFD0
:1038A0000100402038B50B6905460C4613B90025C8
:1038B000284638BD18B183690BB900F087F8144B5E
:1038C0009C421BD16C68B4F90C30002BEFD0626EB7
:1038D000D00704D4990502D4A06D00F015F928464C
:1038E0002146FFF759FF636EDA070546E0D4A38946
:1038F0009B05DDD4A06D00F008F9D9E7054B9C428B
:1039000001D1AC68DFE7044B9C4208BFEC68DAE702
:10391000A8580008C858000888580008002310B5A7
:103920000446C0E90033C0E9043383608181436603
:10393000C2818361194608225C30FFF7FFFB054B0B
:103940006362054BA362054BE362054B246223636C
:1039500010BD00BF193F00083B3F0008733F00083F
:10396000973F0008014900F0AFB800BFA538000834
:1039700070B568224D1E55430E4605F17401FFF7E0
:1039800051FC044640B10021C0E900160C30A06093
:1039900005F16802FFF7D2FB204670BD014800F038
:1039A000B3B800BFCD020020014800F0AEB800BFA0
:1039B000CD020020014800F0A7B800BFCE020020D1
:1039C000014800F0A2B800BFCE02002010B50446A6
:1039D000FFF7F0FFA3691BB1BDE81040FFF7F0BF90
:1039E000C4E912332365134B134A1B68A262A34236
:1039F00004BF0123A361204600F020F86060204648
:103A000000F01CF8A060204600F018F80022E060EA
:103A100004216068FFF782FFA06801220921FFF7F7
:103A20007DFFE06802221221FFF778FF0123A361E6
:103A3000D2E700BF7058000865390008F8B507469E
:103A4000FFF7ACFF1E4B1E68B36913B93046FFF792
:103A5000BDFF4836D6E90134013B03D533680BB3CB
:103A60003668F7E7B4F90C50D5B9164BE36004F1AA
:103A70005800656600F047F8FFF796FFC4E9015566
:103A8000C4E904552560A5610822294604F15C00BB
:103A9000FFF754FBC4E90D55C4E912552046F8BDA3
:103AA0006834D9E704213846FFF762FF04463060E6
:103AB0000028D5D1FFF778FF0C233B60EEE700BF6D
:103AC000705800080100FFFF2DE9F84306468846BC
:103AD00000F148040027D4E90195B9F1010905D5A1
:103AE0002468002CF7D13846BDE8F883AB89012B58
:103AF00007D9B5F90E30013303D029463046C04707
:103B000007436835E9E770477047704770B50E4660
:103B1000B1F90E10002996B014461D4608DAB6F920
:103B20000C3000222A601A0610D44FF480630EE095
:103B30006A4600F045FA0028F1DB019A02F470426F
:103B4000A2F500535A425A412A60EEE74023002072
:103B5000236016B070BD00008B8973B59D070646C3
:103B60000C4607D504F147032360236101236361F9
:103B700002B070BD01AB6A46FFF7C8FF0099054669
:103B80003046FFF74FFB48B9B4F90C309A05EFD433
:103B900023F0030343F00203A381E3E70D4BB36279
:103BA000A389206043F08003A381009B6361019B94
:103BB00020615BB1B4F90E10304600F013FA28B161
:103BC000A38923F0030343F00103A381A0890543E4
:103BD000A581CDE7653900080148FFF795BF00BF13
:103BE000CC0200200148FFF790BF00BFCC020020AC
:103BF0002DE9F047164699468A680B69DDF8208062
:103C00009342B8BF1346336091F8432007460C46F1
:103C10000AB1013333602368990642BF3368023327
:103C20003360256815F0060506D104F1190AE3682A
:103C300032689B1AAB4226DC94F84320131E22689C
:103C400018BF012392062BD404F14302494638469B
:103C5000C04701301ED02368E568326803F00603D0
:103C6000042B08BFAD1AA36822690CBF25EAE575CD
:103C700000259342C4BF9B1AED1800261A34B542A2
:103C80001AD1002008E00123524649463846C04771
:103C9000013003D14FF0FF30BDE8F0870135C6E7B2
:103CA000E1185A1C302081F84300224494F8451052
:103CB00082F843100233C7E70123224649463846BB
:103CC000C0470130E6D00136D9E700002DE9FF47B3
:103CD0000F7E0C9D782F914680460C469A4601F146
:103CE000430207D8622F0AD8002F00F0D880582F3F
:103CF00000F0A38004F1420584F842703AE0A7F195
:103D00006303152BF6D801A151F823F0653D000897
:103D1000793D0008F53C0008F53C0008F53C00083A
:103D2000F53C0008793D0008F53C0008F53C00082A
:103D3000F53C0008F53C0008853E0008A93D000858
:103D4000673E0008F53C0008F53C0008A73E000867
:103D5000F53C0008A93D0008F53C0008F53C0008CA
:103D60006F3E00082B681A1D1B682A6004F142058B
:103D700084F842300123A3E020682968060601F197
:103D800004030AD50E682B60002E03DA2D23764239
:103D900084F843305E480A2319E00E682B6010F067
:103DA000400F18BF36B2EFE72B682068191D296055
:103DB000010601D51E6802E04606FBD51E88544860
:103DC0006F2F0CBF08230A23002184F84310656875
:103DD000A560002DA2BF216821F0040121600EB969
:103DE000002D4DD01546B6FBF3F103FB1167C75DFF
:103DF00005F8017D3746BB420E46F4D9082B0BD19E
:103E00002368DE0708D5236961689942DEBF302345
:103E100005F8013C05F1FF35521B2261CDF800A0E9
:103E20004B4603AA21464046FFF7E2FE01304CD143
:103E30004FF0FF3004B0BDE8F087354881F8457099
:103E40002968236851F8046B29601D0614D5DF0723
:103E500044BF43F0200323601EB9236823F02003EE
:103E600023601023B0E7236843F020032360782306
:103E7000284884F84530E3E7590648BFB6B2E6E77C
:103E80001546BBE72B6826686169181D2860350652
:103E90001B6801D5196002E07006FBD5198000236C
:103EA00023611546BAE72B681A1D2A601D686268EF
:103EB00000212846FCF78CF908B1401B606063685C
:103EC0002361002384F84330A8E723692A46494642
:103ED0004046D0470130ABD023689B0713D4E0683D
:103EE000039B9842B8BF1846A4E7012332464946CF
:103EF0004046D04701309BD00135E36803995B1AF7
:103F0000AB42F2DCEBE7002504F11906F5E700BF50
:103F1000E8580008F958000810B50C46B1F90E1021
:103F200000F082F80028ABBF636DA3891B1823F44F
:103F30008053ACBF6365A38110BD2DE9F0411F46DE
:103F40008B89DB0505460C46164605D5B1F90E10E2
:103F50000223002200F056F8A389B4F90E1023F4CE
:103F60008053A38132463B462846BDE8F041FFF727
:103F700093BB10B50C46B1F90E1000F043F8431C8A
:103F8000A38915BF606523F4805343F48053A38154
:103F900018BFA38110BDB1F90E1000F001B80000E8
:103FA00038B5064D0023044608462B6000F0B8F8EB
:103FB000431C02D12B6803B1236038BDD00200201E
:103FC00038B5074D00230446084611462B6000F023
:103FD000AAF8431C02D12B6803B1236038BD00BF8F
:103FE000D002002038B5064D0023044608462B6059
:103FF00000F09EF8431C02D12B6803B1236038BD4A
:10400000D002002038B5074D04460846114600226C
:104010002A601A4600F08EF8431C02D12B6803B1C7
:10402000236038BDD002002038B5074D044608464D
:10403000114600222A601A4600F07EF8431C02D185
:104040002B6803B1236038BDD002002008B50620DC
:1040500000F02CF8012000F071F81F2938B5044653
:104060000D4604D9162303604FF0FF3038BD426C73
:1040700012B152F821304BB9204600F031F82A46EF
:1040800001462046BDE8384000F018B8012B0AD0A0
:10409000591C03D1162303600120E7E7002442F8EE
:1040A0002540284698470020E0E70000024B0146E3
:1040B0001868FFF7D2BF00BFB400002038B5074D25
:1040C00000230446084611462B6000F039F8431CD3
:1040D00002D12B6803B1236038BD00BFD00200209D
:1040E00000F036B810B50A4C22681318EFF30881B7
:1040F0008B4206D9074B0C221A604FF0FF32104654
:1041000010BD05490548091A8B42F3D22360F6E732
:1041100018010020D002002000000220000400004E
:104120004FF0FF3070474FF400534B600020704752
:10413000012070470020704700207047FEE7000014
:10414000024B16221A604FF0FF307047D002002059
:10415000012070472DE9F047089D04468E46002B4C
:104160004DD18A42944669D9B2FA82F252B101FA2B
:1041700002F3C2F1200120FA01F10CFA02FC41EA3B
:10418000030E94404FEA1C48210CBEFBF8F61FFAC0
:104190008CF708FB16E341EA034306FB07F199425B
:1041A0000AD91CEB030306F1FF3080F01F8199420E
:1041B00040F21C81023E63445B1AA4B2B3FBF8F0E8
:1041C00008FB103344EA034400FB07F7A7420AD96F
:1041D0001CEB040400F1FF3380F00A81A74240F297
:1041E00007816444023840EA0640E41B00261DB102
:1041F000D4400023C5E900433146BDE8F0878B4237
:1042000009D9002D00F0EF800026C5E900013046F5
:104210003146BDE8F087B3FA83F6002E4AD18B42CF
:1042200002D3824200F2F980841A61EB0303012079
:104230009E46002DE0D0C5E9004EDDE702B9FFDE65
:10424000B2FA82F2002A40F09280A1EB0C014FEA10
:104250001C471FFA8CFE0126200CB1FBF7F307FB6D
:10426000131140EA01410EFB03F0884208D91CEB10
:10427000010103F1FF3802D2884200F2CB804346AD
:10428000091AA4B2B1FBF7F007FB101144EA01448C
:104290000EFB00FEA64508D91CEB040400F1FF311B
:1042A00002D2A64500F2BB800846A4EB0E0440EA09
:1042B00003409CE7C6F12007B34022FA07FC4CEA12
:1042C000030C20FA07F401FA06F31C43F9404FEA05
:1042D0001C4900FA06F3B1FBF9F8200C1FFA8CFE1A
:1042E00009FB181140EA014108FB0EF0884202FA6E
:1042F00006F20BD91CEB010108F1FF3A80F088802F
:10430000884240F28580A8F102086144091AA4B2EB
:10431000B1FBF9F009FB101144EA014100FB0EFE6C
:104320008E4508D91CEB010100F1FF346CD28E459B
:104330006AD90238614440EA0840A0FB0294A1EB2C
:104340000E01A142C846A64656D353D05DB1B3EB89
:10435000080261EB0E0101FA07F722FA06F3F140B9
:104360001F43C5E9007100263146BDE8F087C2F160
:104370002003D8400CFA02FC21FA03F391400143D8
:104380004FEA1C471FFA8CFEB3FBF7F007FB103611
:104390000B0C43EA064300FB0EF69E4204FA02F4BD
:1043A00008D91CEB030300F1FF382FD29E422DD910
:1043B000023863449B1B89B2B3FBF7F607FB163345
:1043C00041EA034106FB0EF38B4208D91CEB0101C5
:1043D00006F1FF3816D28B4214D9023E6144C91A45
:1043E00046EA004638E72E46284605E70646E3E655
:1043F0001846F8E64B45A9D2B9EB020864EB0C0E5F
:104400000138A3E74646EAE7204694E74046D1E76D
:10441000D0467BE7023B614432E7304609E764441B
:10442000023842E703685A004CBF43F0004323F0D0
:1044300000431844704700BF2DE9F84329B34F1ECD
:10444000044615463E464FF0000808EB060101EB16
:10445000D171491004EBC1094846FFF7E3FF034659
:10446000C80008308F42204409D0AB4209D8FFF77A
:10447000D9FF0138A8420AD201F10108E5E7AB42B1
:1044800005D9884501D04E1EDFE74FF000094846A8
:10449000BDE8F883012807D0022807D0044B002884
:1044A0000CBF18460020704702487047024870470A
:1044B000594B0008614B0008694B000830B5234B8D
:1044C00083B004468D1E3BB301A92846AFF300809C
:1044D000E8B101992A46FFF7AFFF0146B8B1FFF7EF
:1044E000A1FF4B68A064012B2CD0002B01F104002C
:1044F00024DBFFF797FF0023C4E913030368002BB5
:1045000011DBFFF78FFF2061002003B030BD0023D7
:104510000920236103B030BD0D4B0E49C91AC910E3
:1045200018460191D6E7C3F30360FFF7B3FF0028F5
:10453000206114BF0020092003B030BD0123C4E96D
:104540001303DBE7002323610520DEE70000000002
:104550000C590008A45900080368DA0710B504468E
:1045600006D49B0700F1480009D5FBF7ADFE236890
:10457000590709D51A070ED5DB0613D510BDFBF771
:104580009BFE23685907F5D404F1D000FBF7A4FE85
:1045900023681A07F0D404F5A870FBF7A5FE23687A
:1045A000DB06EBD404F5E870BDE81040FBF7E0BE95
:1045B0000346006800B11844704700BF704700BF51
:1045C00070B504460E46316C2046FFF777FF05466E
:1045D00088B9326C626123693246214601209847CE
:1045E0000828F0D0072806D12846316CFFF7E6FFEF
:1045F000301DFBF755FEFFF729FD00BF2DE9F04701
:104600000D1DD0F80C80D0F81890074614460FCD39
:10461000ADF5727D0DF10C0CACE80F000FCDACE8E0
:104620000F000FCDACE80F0095E80F0002AE4FF081
:10463000000E8CE80F00C6F800E020E0336C7B61D0
:104640004FF4F07231467AA8FEF76AFD3B697AAA08
:10465000394650469847889B73642146CDE90069E6
:1046600005463B463A460120C0470446E0B94FF4B0
:10467000F0727AA93046FEF753FD082D1AD1316C3D
:104680003846FFF71BFF09345FFA84FA0546002815
:10469000D4D0B36B73643A46CDE900693B464AF027
:1046A00010010120C04700B1092528460DF5727D93
:1046B000BDE8F087072DF7D12046316CFFF77EFF6C
:1046C00003A8FBF7EDFD00BFF0B5CB6B0B6401F168
:1046D000040C0E460546BCE80F00F9B001AC0FC44F
:1046E000BCE80F000FC4BCE80F000FC49CE80F002B
:1046F0004FF0FF3784E80F00009706E02B696A4609
:10470000294698470828044608D110992846FFF7FB
:10471000D5FE0028F2D0092079B0F0BD6846FFF739
:104720001BFF062CF7D131462846FFF749FF00BF93
:10473000C160D96B8261196400221946FFF75EBF20
:1047400070B5C66843690B64AEB903690A4604468E
:104750000D46014602209847072805D008280FD1AA
:1047600029462046FFF72CFF3046296CFFF726FF2D
:10477000281DFBF795FD0122FFF740FFFFF766FCC0
:10478000FFF764FCC26822B1CA6B0A640022FFF71B
:1047900035BFFFF799BF00BF012912D009D873B9FF
:1047A0000F2A0CD800EB820218465368009A136057
:1047B00070470339012994BF01200220704702206D
:1047C00070470846704700BF00B585B00A46002311
:1047D00003A900911946FFF7DFFF039805B05DF8C4
:1047E00004FB00BF012912D009D873B90F2A0CD8D5
:1047F00000EB8200009A1268426018467047033945
:10480000012994BF0120022070470220704708460A
:10481000704700BF10B584B0002303AC039200942E
:104820000A461946FFF7DEFF04B010BD70B5D36B22
:10483000136402F1040C05460C46BCE80F00ADF50C
:104840000E7D0DF15C0EAEE80F00BCE80F00AEE887
:104850000F00BCE80F00AEE80F009CE80F004FF01F
:10486000FF368EE80F00169610E0FFF7D3FF2146C3
:1048700016A8A847034616AA6946082083B9049BD0
:104880009847052806460CD0092809D0269968467D
:10489000FFF714FE03466A460C2116A8002BE4D04D
:1048A000092616A8FFF758FE30460DF50E7D70BD9F
:1048B0002DE9F04FCC6C89B01E4654F8043B0694A9
:1048C0000D46174600F00308002E79D01A0C1B0481
:1048D00005938DF81D200223D2B204EB82048DF8DB
:1048E0001C302B6DB8F1020F08BFAC6B13F0010345
:1048F0000CD005A9384600F099FA18B9082009B07B
:10490000BDE8F08F092009B0BDE8F08FD4F800A011
:10491000BAF1000FEDD0019300F008030293022ECC
:104920004AD0B4F800A0B4F802900434AB6C29F07B
:10493000010B0F2138469B44FFF746FF834539D8CA
:104940002AF001039B44834594BF002001204FEAD5
:10495000490303F002030AF0010A43EA0A03012BA8
:1049600049D0022B32D0002BCCD1B8F1000F02D0AD
:10497000002840F0CD800434D4F800A0BAF1000F34
:10498000CDD105A9384600F051FA0028BAD1019BD3
:10499000002BB3D00F213846FFF716FF0E21024639
:1049A0003846FFF737FF38466A4A0F21FFF732FFD4
:1049B0000720A8E70020CAE7D4F804900834B5E738
:1049C0001B0205930323ADF81C308AE7236823F00C
:1049D000004BB8F1000F45D128B1029A002A5CD0F3
:1049E000BBF1000F74D0002B00DA04340BF1010B83
:1049F00004EB8B04C0E7B8F1000F19D1B0B16368C4
:104A00002268991C4FEAD2723FF47CAF05F158013D
:104A10000133049100F09080201DFFF7C9FD04AB25
:104A200001462846AFF3008000285BD10834A3E795
:104A30000D213846D5F82090FFF7C6FE8145F5D107
:104A4000AB6A9C42F2D12046FFF7ECFC0F210246F4
:104A50003846FFF7DFFE38462A460021FFF7DAFE28
:104A6000072050E70D213846D5F82090FFF7ACFE1F
:104A7000814501D02368B6E7AB6A9C42FAD1042392
:104A80000022C5E90B23E318C5F828B06B6323683F
:104A9000002B59DB01230193A8E705F15803CDF85A
:104AA0000C8004F1040AB04691461E460EE05046C2
:104AB0000496FFF77DFD0022014604AB284609F16C
:104AC00001090AF1040AAFF30080E0B9D945EED13B
:104AD0000D213846FFF778FE049BAC62C5E9080358
:104AE000062010E781460D213846FFF76DFEB9F12B
:104AF000020F286225D12B46049A43F82C2F6B62B3
:104B0000AC620620FFE646462368DDF80C806AE7C3
:104B10002046FFF787FC04340246AC63284614465F
:104B2000AFF3008000283FF4EDAE384622460F2157
:104B3000FFF770FE0720E6E60D213846FFF744FE3A
:104B40002862049B6B62DBE70BF1010004EB800041
:104B50007AE700BF000000000023FFF7A9BE00BFF6
:104B60000123FFF7A5BE00BF0223FFF7A1BE00BFD0
:104B70002DE9F0430646C3B015461C46042900F251
:104B8000BF80DFE801F09E57BD2D0300002C40F0F0
:104B9000B780102A00F2B4800368D80600F1F980CB
:104BA00020AF3846FBF7EEFBB46B394600234FF0DD
:104BB000010C0CFA03F22A42204603F1010303D050
:104BC00050F8042B0A600446042B01F10401F0D1D3
:104BD0003846B463FBF7CCFB002043B0BDE8F0835C
:104BE000032C40F08D8094B204EB1243102B4FEA5B
:104BF000124500F2858003681F0700F1D28020AFC4
:104C00003846FBF793FBB26B07EBC50154B10B467B
:104C1000D01A01EBC401E4001D5843F8045B8B4239
:104C2000FAD122443846B263FBF75EFB002043B062
:104C3000BDE8F083012C4FEA124895B25CD0052CF8
:104C40005ED108EB0509B9F1200F59D8B8F10F0F63
:104C500079D9A946002D40F08A80B36B6DB320AF9F
:104C60004FF0000907EBC807043F03EBC50553F8F5
:104C7000041B47F8041FAB42F9D1B9F1000F0FD064
:104C80006F464146102938BF102107EBC101843916
:104C900003EBC90553F8040B41F8040FAB42F9D1FB
:104CA000012C00F08680B8F10F0FB56347D9B9F138
:104CB000000F02D06846FBF70FFB002043B0BDE8B1
:104CC000F083ECB9806B23461FFA82FC0124371D68
:104CD00004FA03F212EA0C0F014604D051F8042B37
:104CE00047F8232008460133102BF1D115F4005565
:104CF000E3D1B063284604E008EB0503102B03D989
:104D0000022043B0BDE8F083B8F10F0FF8D8336844
:104D1000DA0706D5304623F0030340F8483BFBF79B
:104D2000CFFA20AF3846FBF7CBFAB36B002D97D103
:104D30001D460435B5633846FBF7BEFABDE720A82B
:104D4000FBF7C2FAB3E7B9F1100F40D9A9F1100986
:104D50003368D90708D523F00103304643F0020336
:104D600040F8483BFBF7B4FAB9F1000F32D0336892
:104D70005A0720D4B8F10F0F25D96F463846C8F12D
:104D80001005FBF7ADFA002DB36B7FF77AAF20AFBC
:104D900068E723F01003336006F5E870FBF7F2FADA
:104DA000FEE623F00803036000F5A870FBF7BEFAE7
:104DB00025E720AFBDE7304623F0040340F8D03BA1
:104DC000FBF78EFAD6E720A8FBF782FAD5E74FF07B
:104DD0000009BDE7B8F10F0F3FF63FAF20AF3846EF
:104DE000FBF776FAB36B002D7FF43AAF3846FBF74A
:104DF0006BFA62E7027A03467AB9427AA2B1416855
:104E0000013A10B44272086803220C1D1A720202A1
:104E10005C60000E10BC1A6070470068013A1A729C
:104E200002021A60000E7047B02070472DE9F0436F
:104E3000054685B00E464FF000083046FFF7DAFF12
:104E4000B028044600F0BA80070620D500F0F00331
:104E5000802B4DD0902B36D0A02B60D0B02B74D0AF
:104E6000C02B00F08B8000F0F803D02B0BD100F0AA
:104E700007020132052342F4002201212846FFF7F0
:104E800077FE0028D9D0092005B0BDE8F083830063
:104E9000DBB21F1D0DF10C0900231946CDF800905F
:104EA0000D222846FFF778FC039BCDF800906006A2
:104EB0004CBFDF1BFF1800230D221946284603971D
:104EC000FFF790FCB9E700F00D030D2BDBD003AF2B
:104ED000002300F00F02194600972846FFF75CFCFC
:104EE000002300970D2219462846FFF77BFCA4E714
:104EF0003046FFF77FFF24022043B0F5004FC2D0B9
:104F000004010023A2B219462846FFF731FE00280B
:104F1000B9D114F4004F18BF4FF001088DE7C24318
:104F200002F007034FF47F621A41010702F47F6227
:104F30004FF0000348BF42F4804219462846FFF76D
:104F400017FE00283FF479AF9DE7B1283BD0B22887
:104F500000F09380B32841D000F0FC03B42B92D032
:104F600000F007020132012342F4002219462846CC
:104F7000FFF7FEFD00283FF460AF84E7C6284AD063
:104F8000C72854D000F0F803C02B63D0C82868D0DD
:104F9000C9287FF478AF3046FFF72CFF020300F0FA
:104FA0000F0002F47022013002430121052328463C
:104FB000FFF7DEFD00283FF440AF64E7B8F1000FD3
:104FC00018D0002060E73046FFF714FF02460028A3
:104FD0003FF459AF10F0F003C8D054E73046FFF764
:104FE00009FF020300F00F03013302F470221A4399
:104FF0000123BBE703AC43460E22414600942846FA
:10500000FFF7CAFB009443460F2241462846FFF7AC
:10501000E9FB404638E73046FFF7ECFE020300F0BC
:105020000F03013302F470221A4303239EE7304634
:10503000FFF7E0FE024600283FF425AF10F0F00332
:105040007FF421AF04212846FFF792FD00283FF4AA
:10505000F4AE18E700F00F020132032342F42022DD
:1050600084E73046FFF7C6FE00F0F00200F00F03C1
:105070001032013343EA023297E700230DF10C09A5
:105080000D221946CDF800902846FFF785FB3046E3
:10509000FFF7B0FE02064FF002040CD5039B00F0B0
:1050A0007F00A040184403903046FFF7A3FE03069C
:1050B00004F10704F2D4039BCDF8009000F07F02C6
:1050C000A24003F501731A440023039219460D22EE
:1050D0002846FFF787FBB0E608B5FEF7B7FF0000EC
:1050E000F8B500BFF8BC08BC9E467047F8B500BFD5
:0850F000F8BC08BC9E467047A5
:1050F8002F686F6D652F6A756E6C2F2E61726475DF
:10510800696E6F31352F7061636B616765732F53FB
:10511800544D6963726F656C656374726F6E696311
:10512800732F68617264776172652F73746D33329F
:105138002F322E332E302F2F636F7265732F6172CB
:105148006475696E6F2F776972696E675F646967E6
:105158006974616C2E63004572726F723A20257310
:1051680020282569290A000000000000000000012D
:105178000203040607080900000000010203042FC7
:10518800686F6D652F6A756E6C2F2E617264756914
:105198006E6F31352F7061636B616765732F535480
:1051A8004D6963726F656C656374726F6E69637362
:1051B8002F68617264776172652F73746D33322F53
:1051C800322E332E302F2F6C6962726172696573CB
:1051D8002F537263577261707065722F7372632FE9
:1051E80073746D33322F70696E6D61702E630000B9
:1051F8000100000002000000040000000800000098
:1052080010000000200000004000000080000000A6
:105218000001000000020000000400000008000077
:105228000010000000200000004000000080000086
:105238004441433A20556E6B6E6F776E206461630C
:10524800206368616E6E656C000000000400000059
:105258000074004003800000050000000074004056
:1052680003000100FFFFFFFF000000000000000036
:105278000000000000000040128100000001000052
:10528800000C0040128200000100000000000040F5
:105298001201010001010000000C0040120201008F
:1052A800020000000000004012810100020100001D
:1052B800000C004012820100020200000040014080
:1052C80012830000030000000000004012010200E9
:1052D80003010000000C004012020200030200005B
:1052E80000400140120301000500000000000040DA
:1052F8001281000005010000000401401283100023
:1053080006000000000400401282000006010000B0
:10531800001C004012890000070000000000014046
:105328001281100007010000000400401202010071
:105338000702000000040140128310000703000068
:105348000020004012890000080000000000014011
:105358001281000009000000000001401201010054
:105368000A00000000000140128101001000000046
:10537800000001401201110010010000000400406B
:105388001282010010020000000401401203110003
:1053980011000000000001401281110011010000FD
:1053A8000004004012020200110200000004014043
:1053B8001283110014000000000400401282000053
:1053C8001500000000040040120201001600000051
:1053D800000800401282000017000000000800408A
:1053E80012020100180000000008004012820100AB
:1053F8001801000000440140128300001900000059
:105408000008004012020200190100000048014093
:10541800128300001A000000000000401281010001
:105428001B00000000000040120102001D000000E7
:1054380000000140128110001E0000000000014021
:10544800120111001E0100000004014012031100A6
:105458001E02000000180040128900001F00000012
:1054680000000140128111001F01000000040140EA
:10547800128311001F0200000018004012090100E9
:1054880026000000000400401282000026010000EF
:1054980000040140128300002700000000040040BF
:1054A800120201002701000000040140120301005C
:1054B80028000000000400401282010028010000BA
:1054C800000401401283010029000000000400408C
:1054D8001202020029010000000401401203020028
:1054E800FFFFFFFF00000000000000001D0000009B
:1054F8000048004012070000FFFFFFFF0000000007
:10550800000000001E0000000048004012070000D4
:10551800FFFFFFFF00000000000000000300000084
:10552800004400401207000017000000001001406E
:10553800120700001B00000000480040120700008E
:10554800270000000014014012080000FFFFFFFFC1
:1055580000000000000000001600000000100140DC
:10556800120700001A00000000480040120700005F
:10557800260000000014014012080000FFFFFFFF92
:1055880000000000000000002F686F6D652F6A752D
:105598006E6C2F2E61726475696E6F31352F706174
:1055A800636B616765732F53544D6963726F656CE4
:1055B800656374726F6E6963732F68617264776173
:1055C80072652F73746D33322F322E332E302F2F96
:1055D80076617269616E74732F53544D3332463459
:1055E80078782F463430355247545F463431355237
:1055F80047542F76617269616E745F46454154481D
:1056080045525F463430352E63707000100000003C
:105618001100000012000000130000001400000038
:1056280015000000160000001B0000001A00000012
:1056380013000000140000001500000027000000FF
:10564800260000000F0000002000000018000000E5
:1056580019000000230000002200000021000000C3
:1056680017000000160000000400000005000000FC
:1056780006000000070000002400000025000000CC
:10568800030000001D0000001E0000001F000000B5
:1056980028000000290000002A0000002B0000005C
:1056A8002C000000320000001C0000002E0000004A
:1056B8002F0000000B0000000C0000000D0000008F
:1056C8000E0000000000000000000000EF0D0008C0
:1056D8006D0E0008D30D0008510F0008A90D000831
:1056E80045100008B90D00084F210008792100086D
:1056F8004552524F523A205B552853294152545D26
:105708002054782070696E20686173206E6F207055
:1057180065726970686572616C210A004552524F62
:10572800523A205B552853294152545D2052782023
:1057380070696E20686173206E6F20706572697081
:10574800686572616C210A004552524F523A205BDB
:10575800552853294152545D205254532070696E84
:1057680020686173206E6F20706572697068657259
:10577800616C210A004552524F523A205B5528531A
:10578800294152545D204354532070696E2068614A
:1057980073206E6F207065726970686572616C2124
:1057A8000A004552524F523A205B5528532941521C
:1057B800545D2052782F54782F5254532F4354530A
:1057C8002070696E73207065726970686572616CAB
:1057D80073206D69736D61746368210A002F686FA7
:1057E8006D652F6A756E6C2F2E61726475696E6FA8
:1057F80031352F7061636B616765732F53544D6941
:1058080063726F656C656374726F6E6963732F681A
:10581800617264776172652F73746D33322F322E23
:10582800332E302F2F6C69627261726965732F5342
:105838007263577261707065722F7372632F48615B
:1058480072647761726554696D65722E6370700059
:1058580054494D3A20556E6B6E6F776E2074696DA2
:105868006572204952516E00B8000020232D302B5C
:105878002000686C4C0065666745464700000000DC
:105888000000000000000000000000000000000010
:105898000000000000000000000000000000000000
:1058A80000000000000000000000000000000000F0
:1058B80000000000000000000000000000000000E0
:1058C80000000000000000000000000000000000D0
:1058D80000000000000000000000000000000000C0
:1058E800303132333435363738394142434445460E
:1058F80000303132333435363738396162636465A4
:045908006600000035
:10590C0084A8FF7F010000008CA8FF7FB0B0A880A6
:10591C00B0A8FF7F0100000098EBFF7FB0A90280C8
:10592C002CECFF7FB0B0A8807CECFF7F0100000066
:10593C0084ECFF7FB0B0AA80B8ECFF7FAE71B28070
:10594C007CEDFF7FAB3F3880DCEDFF7F010000007A
:10595C00E4EDFF7FB0B0AA8020EEFF7F01000000D5
:10596C00C0EEFF7FAA0DB2803CEFFF7FB0AF088086
:10597C00DCF1FF7F01000000ECF1FF7FAD3F028006
:10598C0068F4FF7F0100000098F4FF7FB0AD048045
:08599C003CF7FF7F0100000051
:0C59A400050600087504000875100008D6
:0459B0005104000896
:1059B4000D0000000024F400000002400004024036
:1059C40000080240000C0240001002400014024093
:1059D40000180240001C02400020024001000000A8
:1059E4001000000000300240000000000000000031
:1059F40000000000000000000000000000000000A3
:105A04000000000000000000000000000000000092
:105A14000000000000000000000000000000000082
:105A24000000000000000000000000000000000072
:105A34000000000000000000000000000000000062
:105A4400000000000000000000000000000600004C
:105A54000000000000000000000000000000000042
:105A640000000000B800002000000000A858000852
:105A7400C858000888580008000000000000000012
:105A84000000000000000000000000000000000012
:105A94000000000000000000000000000000000002
:105AA40000000000000000000000000000000000F2
:105AB40000000000000000000000000000000000E2
:0C5AC4000000000000000000D8020020DC
:0400000508000629C0
:00000001FF
